:0600000000F00FEF00F01C
:10000800FFFF3E82F2B42BEC02F09EB046EC02F009
:100018003E921100FFFF39EF02F0FFFF000E956ED0
:1000280095CF93FF000E836E83CF81FF9288280EB1
:10003800D56E300ECD6EF2949E90F28A9D80F28C31
:10004800F28E000E366E000E376E000E386E000E01
:10005800396E000ED66E000ED76E0B0ECF6EDC0E0C
:10006800CE6E000E3D6E000E3C6E000E3B6E000E16
:100078003A6ECD80D58EFFFF3B5004E1050E3A5C09
:10008800D8A0F9D7D59ECD90D650166E176A186AA3
:10009800D750196E1A6A1B6A19C011F01AC012F0EB
:1000A800106A16501024136E17501120146E185031
:1000B8001220156E1350366E1450376E1550386E68
:1000C800396A3C50106E3D50116E126A136A11C0A5
:1000D80013F010C012F0116A106A36501024366EF0
:1000E80037501120376E38501220386E395013208F
:1000F800396E50EC01F0000E1D6E000E1C6EFFFFF5
:100108001C502E0FD96EDA6A1C50020DF3501E0FC8
:10011800E16EE26AE6CF01F0E5CF02F0A4EC00F070
:100128000150DF6E1C4A1D2A1DBEE9D71D5004E18F
:10013800080E1C5CD8A0E3D7FFFFCFEC01F0FCD77A
:10014800FFFF32D0FFFF000E026E3F0E59D0FFFFB7
:10015800000E026E060E54D0FFFF000E026E5B0EFC
:100168004FD0FFFF000E026E4F0E4AD0FFFF000E69
:10017800026E660E45D0FFFF000E026E6D0E40D077
:10018800FFFF000E026E7D0E3BD0FFFF000E026ED9
:10019800070E36D0FFFF000E026E7F0E31D0FFFF34
:1001A800000E026E6F0E2CD0FFFF01C003F002C0DC
:1001B80004F00450000AD8A41FD00350000AD8B491
:1001C800C1D7010AD8B4C3D7030AD8B4C5D7010A1E
:1001D800D8B4C7D7070AD8B4C9D7010AD8B4CBD777
:1001E800030AD8B4CDD7010AD8B4CFD70F0AD8B4E8
:1001F800D1D7010AD8B4D3D7FFFF000E026E000E84
:10020800FFFF016E1200FFFFFFFF000E096E000ED8
:100218000A6E000E0B6E000E0C6E055006100710CD
:100228000810D8B42ED0010E0D6E07D0FFFFD8905D
:1002380005360636073608360D2AFFFF08AEF6D70C
:10024800FFFFD89009360A360B360C360550015C8C
:10025800065002580750035808500458D8A009D02F
:100268000550015E0650025A0750035A0850045AB6
:100278000980FFFFD89008320732063205320D2E6A
:10028800DFD7FFFF09C001F00AC002F00BC003F07E
:100298000CC004F01200FFFFFFFF39D0FFFF36C08B
:1002A80001F037C002F038C003F039C004F00A0E7C
:1002B800056E000E066E000E076E000E086E95ECB9
:1002C80001F00E50020DF3501E0FD96EDA6A01C00C
:1002D800DEFF02C0DDFF36C001F037C002F038C0D3
:1002E80003F039C004F00A0E056E000E066E000E0B
:1002F800076E000E086E08EC01F001C036F002C06F
:1003080037F003C038F004C039F00E4A0F2AFFFF57
:100318003650371038103910D8B41200FFFFBED746
:10032800FFFFFFFF0550061007100810D8B428D0AB
:10033800010E096E07D0FFFFD8900536063607363E
:100348000836092AFFFF08AEF6D7FFFF0550015C03
:10035800065002580750035808500458D8A008D02F
:100368000550015E0650025A0750035A0850045AB5
:10037800FFFFD8900832073206320532092EE5D73A
:10038800FFFF01C001F002C002F003C003F004C087
:1003980004F01200FFFFFFFF2EC081FF83801AECDC
:1003A80002F083902FC081FF83821AEC02F08392BF
:1003B80030C081FF83841AEC02F0839431C081FF3E
:1003C80083861AEC02F0839632C081FF83881AEC88
:1003D80002F0839833C081FF838A1AEC02F0839A73
:1003E80034C081FF838C1AEC02F0839C35C081FFF6
:1003F800838E1AEC02F0839E1200FFFFFFFF000EAF
:10040800016EFFFF000E026EFFFF000E036EFFFF7E
:10041800032AF90E0364FBD7022AED0E0264F4D70F
:10042800012A090E0164EDD71200FFFFFFFF000E3D
:10043800016EFFFF000E026EFFFF022A010E02642A
:10044800FBD7012A950E0164F4D71200FFFFFFFFC6
:10045800F2A407D0000ED66E000ED76E3C4A3D2A95
:10046800F250FFFF1200FFFFFFFF00EE1EF0180E14
:10047800EE6AE806FDE13E903E92000EF86E00013D
:1004880011EF00F0FFFF9E800B0ECF6EDC0ECE6EDC
:0C0498003A4A3B2A9E901200FFFFFFFF33
:020000040020DA
:08000000FFFFFFFFFFFFFFFF00
:020000040030CA
:0E000000FF010D0EFF0185FF0FC00FE00F4046
:00000001FF
