:0600000000F032EF1EF0DB
:103C6200FFFF00EE01F0140EEE6AE806FDE1000E21
:103C7200F86E000180EF1EF0FFFF000E186E000EBE
:103C8200176E0AD0FFFF000E196EFFFF192AA40E4D
:103C92001964FBD7174A182AFFFF1550175C1650F4
:103CA2001858D8B01200FFFFEDD7FFFFFFFFFFFF4C
:103CB2001E501F10D8B41CD0010E206E05D0FFFF7D
:103CC200D8901E361F36202AFFFF1FAEF8D7FFFFFF
:103CD2001E501C5C1F501D58D8A004D01E501C5EE4
:103CE2001F501D5AFFFFD8901F321E32202EEFD7D1
:103CF200FFFF1CC01CF01DC01DF01200FFFFFFFFE4
:103D02009288000E956E95CF93FF680ED56E000EC9
:103D1200CD6EFFFF020ECF6E000ECE6E9E90F2941D
:103D2200FE0ED66EFFFFFE0ED618D8B4FBD7CD809E
:103D320006D0FFFF9EA003D0114A122A9E90FFFFD9
:103D4200F2A4F7D7CD90CECF13F0CFCF14F0F294E8
:103D52006EEC1FF0AEEC1EF0DCD7FFFF000E836EA0
:103D620083CF81FF09C081FF8386000E166E0A0E83
:103D7200156E3DEC1EF0839607C081FF8384000E12
:103D8200166E0A0E156E3DEC1EF0839405C081FF7F
:103D92008382000E166E0A0E156E3DEC1EF08392A3
:103DA20003C081FF8380000E166E0A0E156E3DEC75
:103DB2001EF083941200FFFFFFFF000E1A6E000E2A
:103DC200196E17501810D8B420D0010E1B6E05D0F2
:103DD200FFFFD890173618361B2AFFFF18AEF8D708
:103DE200FFFFD89019361A361750155C185016581E
:103DF200D8A005D01750155E1850165A1980FFFF2B
:103E0200D890183217321B2EEBD7FFFF19C015F0CE
:103E12001AC016F01200FFFFFFFF34D0FFFF000EA2
:103E2200026E3F0E2CD0FFFF000E026E060E27D050
:103E3200FFFF000E026E5B0E22D0FFFF000E026E2D
:103E42004F0E1DD0FFFF000E026E660E18D0FFFF50
:103E5200000E026E6D0E13D0FFFF000E026E7D0E7D
:103E62000ED0FFFF000E026E070E09D0FFFF000EFC
:103E7200026E7F0E04D0FFFF000E026E6F0EFFFF78
:103E8200016E28D0FFFF15C017F016C018F01850A9
:103E9200000AD8A41FD01750000AD8B4BFD7010A0D
:103EA200D8B4C1D7030AD8B4C3D7010AD8B4C5D786
:103EB200070AD8B4C7D7010AD8B4C9D7030AD8B4F5
:103EC200CBD7010AD8B4CDD70F0AD8B4CFD7010ABD
:103ED200D8B4D1D7FFFF1200FFFFFFFF1450106EBE
:103EE2000F6A13500F240F6E000E1020106E0FC0B9
:103EF20015F010C016F0000E186E0A0E176EDDECEB
:103F02001EF015C00DF016C00EF0000E186E0A0E4F
:103F1200176E0FC015F010C016F0DDEC1EF015C0C4
:103F22001CF016C01DF0000E1F6E0A0E1E6E58EC1D
:103F32001EF01CC009F01DC00AF009C015F00AC02D
:103F420016F00DEC1FF001C009F002C00AF00DC01E
:103F520015F00EC016F0000E186E0A0E176EDDEC8C
:103F62001EF015C00BF016C00CF00DC01CF00EC0F8
:103F72001DF0000E1F6E0A0E1E6E58EC1EF01CC0C5
:103F820007F01DC008F007C015F008C016F00DECD0
:103F92001FF001C007F002C008F00BC01CF00CC0FB
:103FA2001DF0000E1F6E0A0E1E6E58EC1EF01CC095
:103FB20005F01DC006F005C015F006C016F00DECA8
:103FC2001FF001C005F002C006F00BC015F00CC0D6
:103FD20016F0000E186E0A0E176EDDEC1EF015C0FC
:103FE20003F016C004F003C015F004C016F00DEC87
:0E3FF2001FF001C003F002C004F01200FFFF38
:020000040020DA
:08000000FFFFFFFFFFFFFFFF00
:020000040030CA
:0E000000FF270F0FFF0185FF0FC00FE00F401D
:00000001FF
